:1000000010C022C021C020C01FC01EC01DC01CC007
:100010001BC01AC019C018C017C016C015C014C024
:1000200013C011241FBECFE5D1E0DEBFCDBF10E06D
:10003000A0E6B0E0EEE8F0E002C005900D92A23636
:10004000B107D9F71CD021C0DBCF07C0E9EFF0E042
:100050003197F1F700C0000001970097B9F70895B4
:1000600084E08BBB8091600090916100EEDF88E0BE
:100070008BBB8091600090916100E7DF08958CE078
:0E0080008ABB83E08BBBECDFFECFF894FFCF92
:02008E00E80385
:00000001FF
